:107168000C9407390C9443390C9424390C94243921
:107178000C9424390C9424390C9424390C94243913
:107188000C9424390C9424390C9424390C94243903
:107198000C9424390C9424390C9424390C942439F3
:1071A8000C9424390C9424390C9424390C942439E3
:1071B8000C942439040309041C0377007700770032
:1071C8002E00660069007300630068006C002E00E2
:1071D800640065000E03550053004200610073000F
:1071E800700012011001FF000008C016DC05020142
:1071F80001020001090212000101008032090400A5
:1072080000000000000011241FBECFE5D4E0DEBF5F
:10721800CDBF10E0A0E6B0E0E4EAF9E702C00590CF
:107228000D92A636B107D9F710E0A6E6B0E001C086
:107238001D92AF39B107E1F70E94563A0C94D03C41
:107248000C94B438A82FB92F8FEF9FEF41E050EA84
:10725800615070F02D9138E0722F782796958795B8
:10726800269570FF02C0842795273A95A9F7F0CF95
:10727800809590950895E6DF8D939D930895CF931B
:10728800CFB7CF93DF93849BFECF849B0BC0849BA7
:1072980009C0849B07C0849B05C0849B03C0849B52
:1072A80001C089C06F93C0918200DD27C757DF4FA7
:1072B8002F9365E5849B03C02F916F91E6CF0F93C1
:1072C8001F934F9320E040E15F9300B3047104FBE8
:1072D80027F93F9350E03BE039C0147140642F77A1
:1072E800012F53501EC0406810B314712F775350AC
:1072F8001FC0406400B32F770471D1F153500000D0
:1073080023C0406210B32F77147191F153500000DD
:1073180025C004711027515012F45D5F0000115010
:1073280027952C3F10B3C8F61471012701502795F3
:107338002C3FC8F64227499300B3047110274F73B6
:10734800115027952C3FA8F64695469510B3147111
:1073580079F00127015027952C3F98F66B5A60F376
:10736800315000B3B0F600C010E41ABF002717C0B0
:107378003B503195C31BD04010E41ABF0881033C31
:10738800F9F00B34E9F0209180001981110F1213E4
:10739800EDCF093651F10D3211F0013E39F7009366
:1073A80087003F915F914F911F910F912F916F919E
:1073B800CAB7C6FD68CFDF91CF91CFBFCF911895DF
:1073C80000918700002369F310918500112339F596
:1073D80034303AF130938500009381001091820097
:1073E8003BE0311B309382001CC0009185000130C6
:1073F800B4F40AE53091610034FD14C000936100D3
:10740800C5E7D0E013C0052710E000C0000002BBAC
:107418001AC0052710E0221F1DC010E021C04AE550
:1074280002C032ED432FC4E1D0E032E011B3146161
:10743800949A02B311BB54E120E865E320FF0527C5
:1074480002BB279517951C3FF0F66695B8F7B1F77C
:1074580020FF052702BB279517951C3FD0F62795D7
:10746800179517FF052700001C3F02BBB0F62991AE
:107478003A9519F70B7E10918600110FC651D0402E
:1074880002BB11F01093800010E41ABF006111B321
:107498001B7E402F4B7E54E05A95F1F702BB11BB7F
:1074A80042BB7FCF2F923F924F925F926F927F9213
:1074B8008F929F92AF92BF92CF92DF92EF92FF92FC
:1074C8000F931F93CF93DF93979A04B601FE22C2BE
:1074D80014BE81E08BBF82E08BBF87991BC285B742
:1074E800836085BF8BB780648BBF8C9A20E040EAAD
:1074F8005FE004C0A895CA010197F1F72150D1F7C0
:107508008C987894CC24DD24EE24EA9446E6642E04
:1075180040E0742E3EE7A32E30E0B32E28E8422E3A
:1075280020E0522E9CED292E91E7392E8AEE882EE6
:1075380081E7982E9091850019160CF051C1809121
:107548008200CCE0D0E0C81BD109C757DF4F092F14
:107558000350809181008D3209F0C3C02AE5209341
:107568006100083009F032C13881832F8076298183
:10757800882309F060C010927E00222349F41092FB
:107588007F00B0928400A092830090E822E09DC022
:10759800253021F48A818093860095C02630B1F584
:1075A8008B81813029F4909284008092830008C0F6
:1075B800823049F48CEF91E79093840080938300A4
:1075C80090EC22E182C0833009F07BC08A81882355
:1075D80041F48CEB91E7909384008093830090ECC6
:1075E8004AC0813049F480EC91E7909384008093FD
:1075F800830090EC2CE169C0823009F062C03092BF
:1076080084002092830090EC2EE05FC0283029F49B
:10761800509284004092830032C0293021F48A813C
:107628008093880050C02A3009F04DC0B092840081
:10763800A092830024C0709284006092830023305B
:10764800E1F49B818C812A81203339F48370E82FFF
:10765800F0E0EE59FF4F80810BC0203A19F40E94E8
:10766800B13C06C0203C19F46D810E94C33C80E007
:107678008093690090E824E028C0253019F490E848
:1076880021E023C0822F84508630A8F48A819B8110
:1076980090936D0080936C002930A9F09E8190939F
:1076A80070008D818270809371002093720037FD85
:1076B80010C08FEF0FC0223031F491E090936B002F
:1076C80002C090EC01C090E820E08F81882321F06F
:1076D80080C0892F90E07EC08E81821708F47AC01E
:1076E80078C080916A0087FD71C080917000801712
:1076F80008F4082F801B80937000FF24882311F45E
:10770800FF24F394809172008730A0F010E060911C
:107718006C0070916D00CE01A8010E94B93C809167
:107728006C0090916D00080F191F10936D00009365
:107738006C0045C040917100E0916C00F0916D00C3
:1077480037C00250CF018F779070892B49F4F89495
:1077580023E020935700E895789407B600FCFDCF06
:10776800F8948991999121E00C0120935700E895AC
:10777800112478949F012E5F3F4FC9018F77907035
:10778800892B31F010169CF0FF2089F0442379F002
:10779800F89485E080935700E895789407B600FC44
:1077A800FDCFF89491E190935700E8957894F9010A
:1077B80010160CF4C6CFF0936D00E0936C00FF2018
:1077C80011F090E004C090E08FEF04C090E880E0F2
:1077D80001C0822F90936A00809360001092850008
:1077E8008091610084FF80C0809160008F3F09F420
:1077F8007BC0082F893008F008E0801B8093600068
:1078080080916A0080FD02C01BE401C013EC8F5F09
:1078180080936A0087FF26C02091830030918400FE
:1078280086FD05C0D901902FE6E7F0E011C0A6E774
:10783800B0E080E090E006C0F901E80FF91FE4919C
:10784800ED9301960817C1F705C08D91819391506A
:107858009923D9F7F901E00FF11DF0938400E09323
:1078680083002FC0002369F180917000801708F40D
:10787800082F801B8093700080917200873058F029
:1078880060916C0070916D0086E790E0402F50E0A9
:107898000E94A13C0AC060916C0070916D0086E75F
:1078A80090E0402F50E00E94983C80916C009091AD
:1078B8006D00800F911D90936D0080936C000930CE
:1078C80060F486E790E0602F0E943F39802F8C5F3C
:1078D800083031F0E092600003C0E09260008EE171
:1078E80010937500809361009AE080B3847131F43D
:1078F8009150D9F7109286001092800080916B0009
:10790800882331F00894C108D108C114D10411F0BA
:10791800879B10CE12BAF89481E08BBF1BBEE09112
:107928007300F09174000995FB01DC0102C0059019
:107938000D9241505040D8F70895DC01CB01FC016D
:10794800E199FECF06C0FFBBEEBBE09A31960DB2BF
:107958000D9241505040B8F70895E199FECF9FBB72
:107968008EBBE09A99278DB30895DC01CB0103C043
:107978002D910E94C43C41505040D0F70895262FC5
:10798800E199FECF9FBB8EBB2DBB0FB6F894E29A50
:0C799800E19A0FBE01960895F894FFCF0D
:0679A400FF5A1E940300CF
:040000030000716820
:00000001FF
