:1018000042C07AC05BC05AC059C058C057C056C009
:1018100055C054C053C052C051C050C04FC04EC03C
:101820004DC04CC04BC04AC049C048C047C046C06C
:1018300045C044C0090212000101008032090400C1
:1018400000000000000012011001FF000008C01697
:10185000DC050201010200010E03550053004200A5
:101860006100730070001C037700770077002E0082
:10187000660069007300630068006C002E0064005D
:1018800065000403090411241FBECFEFD4E0DEBFBE
:10189000CDBF11E0A0E0B1E0E0EAFFE102C00590B9
:1018A0000D92A630B107D9F711E0A6E0B1E001C072
:1018B0001D92AF33B107E1F73CD171C3A1CFA82F7F
:1018C000B92F8FEF9FEF41E050EA615070F02D91FA
:1018D00038E0722F782796958795269570FF02C07D
:1018E000842795273A95A9F7F0CF8095909508958C
:1018F000E6DF8D939D930895CF93CFB7CF93DF937A
:101900004C9BFECF4C9B0BC04C9B09C04C9B07C013
:101910004C9B05C04C9B03C04C9B01C089C06F937E
:10192000C0912201DD27C75DDE4F2F9365E54C9BFB
:1019300003C02F916F91E6CF0F931F934F9320E039
:1019400040E15F9309B1047104FB27F93F9350E034
:101950003BE039C0147140642F77012F53501EC0F3
:10196000406819B114712F7753501FC0406409B1FA
:101970002F770471D1F15350000023C0406219B198
:101980002F77147191F15350000025C00471102776
:10199000515012F45D5F0000115027952C3F19B192
:1019A000C8F614710127015027952C3FC8F642272D
:1019B000499309B1047110274F73115027952C3F9B
:1019C000A8F64695469519B1147179F00127015092
:1019D00027952C3F98F66B5A60F3315009B1B0F659
:1019E00000C011E01CBB002717C03B503195C31B42
:1019F000D04011E01CBB0881033CF9F00B34E9F046
:101A0000209120011981110F1213EDCF093651F1E8
:101A10000D3211F0013E39F7009327013F915F919C
:101A20004F911F910F912F916F91CCB3C0FD68CF53
:101A3000DF91CF91CFBFCF9118950091270100235F
:101A400069F310912501112339F534303AF13093BF
:101A5000250100932101109122013BE0311B3093BD
:101A600022011CC0009125010130B4F40AE5309137
:101A7000000134FD14C000930001C5E1D1E013C0A2
:101A8000052710E000C000000BB91AC0052710E0C0
:101A9000221F1DC010E021C04AE502C032ED432FD5
:101AA000C4E1D0E032E01AB114615C9A0BB11AB90A
:101AB00054E120E865E320FF05270BB9279517952A
:101AC0001C3FF0F66695B8F7B1F720FF05270BB974
:101AD000279517951C3FD0F62795179517FF0527D3
:101AE00000001C3F0BB9B0F629913A9519F70B7E0F
:101AF00010912601110FC651D0400BB911F010936F
:101B0000200111E01CBB00611AB11B7E402F4B7EEF
:101B100054E05A95F1F70BB91AB94BB97FCF1BB8FE
:101B2000F89481E085BF15BEE0911301F091140196
:101B30000995CFEFD4E0DEBFCDBF5F9A04B601FEBA
:101B400010C214BE81E085BF82E085BF4F9909C2F3
:101B5000AA24BB2480916900836080936900E89A7D
:101B6000549A2FEFA89580EA9FE00197F1F7215052
:101B7000C9F7549878949091250119160CF059C121
:101B80008091220145E351E0481B5109935030E018
:101B900070E8809121018D3209F0BAC08AE5809306
:101BA0000001983009F03FC1EA01888180762981DF
:101BB000882309F04EC08EE191E030931E0122236C
:101BC00021F430931F0132E011C0253029F4FA01CD
:101BD00082818093260191C0263051F570ECEA0194
:101BE0008B81813041F486E498E132E190932401C5
:101BF0008093230182C0823019F484E398E1F5CF09
:101C0000833009F07AC0FA018281882321F482E8C6
:101C100098E134E0EBCF813021F486E698E13CE1B5
:101C2000E5CF823009F069C088E598E13EE0DECF7B
:101C3000283019F488E291E00AC0293029F4EA0139
:101C40008A818093280159C02A3009F056C031E0BA
:101C5000CDCF632F86E091E0909324018093230100
:101C6000233009F5932FFA01F380E481EE2EEA0187
:101C70008A81803331F4E370FF27EE5FFE4F90815D
:101C80000EC0803A29F4D70176D1802D982F07C055
:101C9000803C29F4FA018581D701082E74D19093F4
:101CA000090164E021C0253011F461E01DC0822FDC
:101CB00084508630A0F4EA018A819B8190930D01C3
:101CC00080930C01293081F08E81809310018D81E9
:101CD000827080931101209312016FEF05C02230B2
:101CE00019F481E080930B01362F6F3F31F4FA0134
:101CF000808187FD36817F7796C0EA018F818823B6
:101D000009F091C08E81831708F08DC0382F8BC0E9
:101D100080910A0187FD87C0BA018091100189175F
:101D200008F4982F891B80931001932E882311F4B7
:101D300021E0922E809112018730A0F0A0910C0139
:101D4000B0910D01892F9927EC01FB0121971CF01F
:101D5000019019D1FBCF20910C0130910D01280F7A
:101D6000391F4FC0A92F19160CF04FC093E0C92E90
:101D700081E0D82EB091110105E040910C01509105
:101D80000D0111E1A250CA018F739070892B49F4A3
:101D9000F894FA01C0925700E895789407B600FCD1
:101DA000FDCFF894FB0181919191BF010C01FA01E3
:101DB000D0925700E895112478949A012E5F3F4FF6
:101DC000A901C9018F739070892B31F01A16B4F0F4
:101DD0009920A1F0BB2391F0F89422503040F901F2
:101DE00000935700E8952E5F3F4F789407B600FCAC
:101DF000FDCFF89410935700E89578941A160CF4D8
:101E0000C1CF30930D0120930C01E92DFF273FEF47
:101E1000E31731F4E09301018EE18093000102C0E9
:101E2000E11130E070E070930A01309301011092EB
:101E300025018091000184FF7CC0809101018F3FCA
:101E400009F477C0682F893008F068E0861B80931A
:101E500001010BE480910A0180FD03EC8F5F809308
:101E60000A01C6E1D1E087FF1CC0E0912301F09197
:101E70002401262F215086FF08C02F3F61F0C8950E
:101E8000802D899331962150F8CF2F3F21F08191F9
:101E900089932150FACFF0932401E093230177270F
:101EA00035C0662389F1162F80911001861708F43A
:101EB000182F811B8093100180911201212F33274D
:101EC000873060F0A0910C01B0910D01C901FE01B5
:101ED00001971CF050D00192FBCF07C0A90160917F
:101EE0000C0170910D01CE013DD0812F99272091D9
:101EF0000C0130910D01280F391F30930D012093F3
:101F00000C01682F772702C060E070E0C62F6930AF
:101F100040F486E191E0ECDC9C2F9C5FC83028F413
:101F200001C09EE18FEF8093010100931501909312
:101F300000019AE089B1847111F49150D9F7992385
:101F400021F4909326019093200180910B01882326
:101F500031F00894A108B108A114B10411F04F9B0D
:101F60000ACEDDDDFB01DC0102C005900D9241507F
:101F70005040D8F70895F999FECFB2BDA1BDF89AA7
:101F8000119600B40895F999FECFB2BDA1BD00BC71
:101F900011960FB6F894FA9AF99A0FBE0895FFCFEA
:061FA0005AFF1E930A0027
:0400000300001800E1
:00000001FF
