:1018000042C07AC05BC05AC059C058C057C056C009
:1018100055C054C053C052C051C050C04FC04EC03C
:101820004DC04CC04BC04AC049C048C047C046C06C
:1018300045C044C0090212000101008032090400C1
:1018400000000000000012011001FF000008C01697
:10185000DC050201010200010E03550053004200A5
:101860006100730070001C037700770077002E0082
:10187000660069007300630068006C002E0064005D
:1018800065000403090411241FBECFEFD4E0DEBFBE
:10189000CDBF11E0A0E0B1E0E2EAFFE102C00590B7
:1018A0000D92A630B107D9F711E0A6E0B1E001C072
:1018B0001D92AE33B107E1F778D172C3A1CFA82F43
:1018C000B92F8FEF9FEF41E050EA615070F02D91FA
:1018D00038E0722F782796958795269570FF02C07D
:1018E000842795273A95A9F7F0CF8095909508958C
:1018F000E6DF8D939D930895CF93CFB7CF934C9B05
:10190000FECF4C9B09C04C9B07C04C9B05C04C9B19
:1019100003C04C9B01C0A1C0DF93C0912101DD2712
:10192000C85DDE4F4C9B02C0DF91EBCF2F930F932E
:101930001F9309B12FEF04FB20F94F933F9319B187
:101940004FEF012704FB21F93BE031C04E7F012F0F
:1019500019B1216028C0102F4D7F2260000009B10D
:1019600029C04B7F2460012F000019B12BC019B191
:10197000477F28602AC04F7E09B120612CC04F7D6F
:1019800019B120622FC04F7B09B1206432C04227B9
:1019900009B149934FEF0000102714FB20F919B14A
:1019A0001471C9F1297F91F2012704FB21F909B1D2
:1019B000237F89F2315058F1102714FB22F919B115
:1019C000277E79F2012704FB23F92F7C81F209B1EC
:1019D000102714FB24F92F7971F200C019B10127E7
:1019E00004FB25F92F7359F200C009B1102714FB2D
:1019F00026F9223040F200C019B1012704FB27F973
:101A0000243028F64F77206819B10000F9CF11E093
:101A10001CBB002717C03B503195C31BD04011E0C1
:101A20001CBB0881033CE9F00B34D9F020911F0165
:101A30001981110F1213EDCF093641F10D3211F05A
:101A4000013E39F7009326013F914F911F910F916D
:101A50002F91DF91CCB3C0FD52CFCF91CFBFCF91AB
:101A6000189500912601002379F310912401112388
:101A700049F534304AF1309324010093200110914C
:101A800021013BE0311B309321011EC00091240154
:101A90000130C4F40AE53091000134FD17C0009311
:101AA0000001C4E1D1E016C0052710E00BB91FC04A
:101AB000052722C0052727C005272CC0052710E0D1
:101AC0000BB933C04AE503C042ED01C0432FC4E166
:101AD000D0E032E01AB114615C9A0BB11AB95F938D
:101AE00054E120E820FF05270BB9279517951C3FE7
:101AF000D8F620FF052727950BB917951C3FC0F690
:101B000020FF0527279517950BB91C3F98F620FF56
:101B10000527279517951C3F0BB970F600C0499112
:101B200020FF05270BB9279517951C3F38F620FF96
:101B3000052727950BB917951C3F38F520FF05277A
:101B4000279517950BB91C3F10F520FF0527279502
:101B500017951C3F0BB9E8F4242F3A9519F60B7E24
:101B60005F910BB910912501110FC651D04011F0B2
:101B700010931F0111E01CBB00611AB11B7E402FA6
:101B80004B7E0BB91AB94BB95FCF0527D3CF0527C9
:101B9000D8CF0527DDCF1BB8F89481E085BF15BEEF
:101BA000E0911201F09113010995CFEFD4E0DEBF6F
:101BB000CDBF5F9A04B601FED5C114BE81E085BFDA
:101BC00082E085BF4F99CEC1AA24BB2480916900D1
:101BD000836080936900E89A549A2FEFA89588EB68
:101BE0009BE00197F1F72150C9F7549878949091B0
:101BF000240119160CF031C180912101C4E3D1E018
:101C0000C81BD109935030E050E8809120018D32FB
:101C100009F0ADC08AE580930001983009F017C142
:101C2000888180762981882309F04AC08DE191E07E
:101C300030931D01222321F430931E0132E00FC0A6
:101C4000253021F48A818093250187C0263041F513
:101C500050EC8B81813041F486E498E132E190933D
:101C600023018093220179C0823019F484E398E142
:101C7000F5CF833009F071C08A81882321F482E88E
:101C800098E134E0ECCF813021F486E698E13CE144
:101C9000E6CF823009F061C088E598E13EE0DFCF11
:101CA000283019F487E291E009C0293021F48A81B3
:101CB0008093270152C02A3009F04FC031E0CFCFC6
:101CC000432F86E091E090932301809322012330FB
:101CD000F1F4932FFB80EC81EE2E8A81803331F476
:101CE000E370FF27EE5FFE4F90810DC0803A29F42C
:101CF000D70142D1802D982F06C0803C21F48D81E0
:101D0000D701082E41D19093090144E01EC025302F
:101D100011F441E01AC0822F8450863088F48A8101
:101D20009B8190930D0180930C01293071F08E817D
:101D3000809310018D818270809311014FEF05C057
:101D4000223019F481E080930B01342F4F3F29F4A6
:101D5000888187FD3E815F777AC08F81882309F073
:101D600076C08E81831708F072C0382F70C08091C2
:101D70000A0187FD6CC0DE0180911001891708F40B
:101D8000982F891B80931001732F882309F471E029
:101D9000692F19160CF04DC093E0C92E81E0D82EA2
:101DA000C091110115E040910C0150910D0101E12C
:101DB0006250CA018F739070892B49F4F894FA012C
:101DC000C0925700E895789407B600FCFDCFF894D0
:101DD0008D919D910C01FA01D0925700E895112444
:101DE00078949A012E5F3F4FA901C9018F739070BB
:101DF000892B31F01616B4F07723A1F0CC2391F0A3
:101E0000F89422503040F90110935700E8952E5F66
:101E10003F4F789407B600FCFDCFF894009357002D
:101E2000E895789416160CF4C3CF30930D012093E7
:101E30000C01E72FFF273FEFE31731F4E093010197
:101E40008EE18093000102C0E11130E050E0509338
:101E50000A0130930101109224018091000184FF56
:101E600069C0809101018F3F09F464C0082F893057
:101E700008F008E0801B80930101CBE480910A0107
:101E800080FDC3EC8F5F80930A01A5E1B1E087FF7D
:101E90001DC0E0912201F0912301902F915086FF07
:101EA00008C09F3F61F0C895802D8D933196915069
:101EB000F8CF9F3F21F081918D939150FACFF0930D
:101EC0002301E0932201602F772721C00023E9F04E
:101ED00090911001901708F4092F901B9093100116
:101EE0001127A80160910C0170910D01CD013BD02B
:101EF00080910C0190910D01800F911F90930D0125
:101F000080930C01602F772702C060E070E0062FFD
:101F1000693040F485E191E0EBDC902F9C5F083064
:101F200028F401C09EE18FEF80930101C09314015A
:101F3000909300019AE089B1847111F49150D9F71E
:101F4000992321F49093250190931F0180910B0117
:101F5000882331F00894A108B108A114B10411F04C
:101F60004F9B45CE18DEFB01DC0102C005900D92AF
:101F700041505040D8F70895F999FECFB2BDA1BDA8
:101F8000F89A119600B40895F999FECFB2BDA1BD9B
:101F900000BC11960FB6F894FA9AF99A0FBE0895FC
:021FA000FFCF71
:061FA2005AFF1E930A0025
:0400000300001800E1
:00000001FF
