:101800003BC073C054C053C052C051C050C04FC041
:101810004EC04DC04CC04BC04AC049C048C047C074
:1018200046C045C044C009021200010100803209CF
:10183000040000000000000012011001FF00000879
:10184000C016DC050201010200010E035500530021
:1018500042006100730070001C037700770077007E
:101860002E00660069007300630068006C002E00A3
:10187000640065000403090411241FBECFE5D4E011
:10188000DEBFCDBF10E0A0E6B0E0E2E9FFE102C0BC
:1018900005900D92A636B107D9F710E0A6E6B0E0A4
:1018A00001C01D92AF39B107E1F73CD171C3A8CF98
:1018B000A82FB92F8FEF9FEF41E050EA615070F0F1
:1018C0002D9138E0722F782796958795269570FF91
:1018D00002C0842795273A95A9F7F0CF8095909577
:1018E0000895E6DF8D939D930895CF93CFB7CF935F
:1018F000DF93849BFECF849B0BC0849B09C0849B99
:1019000007C0849B05C0849B03C0849B01C089C021
:101910006F93C0918200DD27C757DF4F2F9365E596
:10192000849B03C02F916F91E6CF0F931F934F932A
:1019300020E040E15F9300B3047104FB27F93F937B
:1019400050E03BE039C0147140642F77012F5350B1
:101950001EC0406810B314712F7753501FC04064ED
:1019600000B32F770471D1F15350000023C04062BF
:1019700010B32F77147191F15350000025C00471FA
:101980001027515012F45D5F0000115027952C3F35
:1019900010B3C8F614710127015027952C3FC8F6E3
:1019A0004227499300B3047110274F7311502795B4
:1019B0002C3FA8F64695469510B3147179F001278F
:1019C000015027952C3F98F66B5A60F3315000B3C5
:1019D000B0F600C010E41ABF002717C03B50319585
:1019E000C31BD04010E41ABF0881033CF9F00B344C
:1019F000E9F0209180001981110F1213EDCF093603
:101A000051F10D3211F0013E39F7009387003F91FB
:101A10005F914F911F910F912F916F91CAB7C6FDA2
:101A200068CFDF91CF91CFBFCF91189500918700FC
:101A3000002369F310918500112339F534303AF110
:101A40003093850000938100109182003BE0311BB0
:101A5000309382001CC0009185000130B4F40AE587
:101A60003091600034FD14C000936000C5E7D0E001
:101A700013C0052710E000C0000002BB1AC00527F4
:101A800010E0221F1DC010E021C04AE502C032ED67
:101A9000432FC4E1D0E032E011B31461949A02B351
:101AA00011BB54E120E865E320FF052702BB279521
:101AB00017951C3FF0F66695B8F7B1F720FF05279C
:101AC00002BB279517951C3FD0F62795179517FF52
:101AD000052700001C3F02BBB0F629913A9519F783
:101AE0000B7E10918600110FC651D04002BB11F041
:101AF0001093800010E41ABF006111B31B7E402FC9
:101B00004B7E54E05A95F1F702BB11BB42BB7FCF2D
:101B100012BAF89481E08BBF1BBEE0917300F09184
:101B200074000995CFE5D4E0DEBFCDBF979A04B627
:101B300001FE10C214BE81E08BBF82E08BBF87998B
:101B400009C2AA24BB2485B7836085BF8BB7806494
:101B50008BBF8C9A2FEFA89580EA9FE00197F1F751
:101B60002150C9F78C9878949091850019160CF043
:101B700059C18091820045E950E0481B51099350BA
:101B800030E070E8809181008D3209F0BAC08AE5BA
:101B900080936000983009F03FC1EA018881807627
:101BA0002981882309F04EC08EE790E030937E00B3
:101BB000222321F430937F0032E011C0253029F434
:101BC000FA0182818093860091C0263051F570EC35
:101BD000EA018B81813041F488E398E132E190930E
:101BE00084008093830082C0823019F486E298E1F9
:101BF000F5CF833009F07AC0FA018281882321F47D
:101C000084E798E134E0EBCF813021F488E598E176
:101C10003CE1E5CF823009F069C08AE498E13EE01A
:101C2000DECF283019F488E890E00AC0293029F482
:101C3000EA018A818093880059C02A3009F056C091
:101C400031E0CDCF632F86E690E0909384008093BF
:101C50008300233009F5932FFA01F380E481EE2EFF
:101C6000EA018A81803331F4E370FF27EE59FF4F98
:101C700090810EC0803A29F4D70176D1802D982F1B
:101C800007C0803C29F4FA018581D701082E74D160
:101C90009093690064E021C0253011F461E01DC01B
:101CA000822F84508630A0F4EA018A819B81909330
:101CB0006D0080936C00293081F08E8180937000DC
:101CC0008D81827080937100209372006FEF05C048
:101CD000223019F481E080936B00362F6F3F31F48E
:101CE000FA01808187FD36817F7796C0EA018F8176
:101CF000882309F091C08E81831708F08DC0382F9A
:101D00008BC080916A0087FD87C0BA018091700006
:101D1000891708F4982F891B80937000932E8823CD
:101D200011F421E0922E809172008730A0F0A091F2
:101D30006C00B0916D00892F9927EC01FB01219770
:101D40001CF0019019D1FBCF20916C0030916D00F7
:101D5000280F391F4FC0A92F19160CF04FC093E060
:101D6000C92E81E0D82EB091710005E040916C0041
:101D700050916D0011E1A250CA018F739070892BB0
:101D800049F4F894FA01C0925700E895789407B6A0
:101D900000FCFDCFF894FB0181919191BF010C01F2
:101DA000FA01D0925700E895112478949A012E5F99
:101DB0003F4FA901C9018F739070892B31F01A161A
:101DC000B4F09920A1F0BB2391F0F8942250304058
:101DD000F90100935700E8952E5F3F4F789407B6BE
:101DE00000FCFDCFF89410935700E89578941A16EC
:101DF0000CF4C1CF30936D0020936C00E92DFF27C8
:101E00003FEFE31731F4E09361008EE180936000CF
:101E100002C0E11130E070E070936A00309361001D
:101E2000109285008091600084FF7CC080916100E9
:101E30008F3F09F477C0682F893008F068E0861B6F
:101E4000809361000BE480916A0080FD03EC8F5F5A
:101E500080936A00C6E7D0E087FF1CC0E091830052
:101E6000F0918400262F215086FF08C02F3F61F09B
:101E7000C895802D899331962150F8CF2F3F21F0BE
:101E8000819189932150FACFF0938400E0938300ED
:101E9000772735C0662389F1162F80917000861749
:101EA00008F4182F811B8093700080917200212FFD
:101EB0003327873060F0A0916C00B0916D00C901AC
:101EC000FE0101971CF050D00192FBCF07C0A90181
:101ED00060916C0070916D00CE013DD0812F9927EB
:101EE00020916C0030916D00280F391F30936D00E8
:101EF00020936C00682F772702C060E070E0C62F47
:101F0000693040F486E790E0ECDC9C2F9C5FC830A1
:101F100028F401C09EE18FEF80936100009375006B
:101F2000909360009AE080B3847111F49150D9F7D6
:101F3000992321F4909386009093800080916B0008
:101F4000882331F00894A108B108A114B10411F05C
:101F5000879B0ACEDDDDFB01DC0102C005900D92FE
:101F600041505040D8F70895E199FECFBFBBAEBBBA
:101F7000E09A11960DB20895E199FECFBFBBAEBBBA
:101F80000DBA11960FB6F894E29AE19A0FBE089531
:021F9000FFCF81
:061F92005AFF1E93070038
:0400000300001800E1
:00000001FF
