:101800003BC073C054C053C052C051C050C04FC041
:101810004EC04DC04CC04BC04AC049C048C047C074
:1018200046C045C044C009021200010100803209CF
:10183000040000000000000012011001FF00000879
:10184000C016DC050201010200010E035500530021
:1018500042006100730070001C037700770077007E
:101860002E00660069007300630068006C002E00A3
:10187000640065000403090411241FBECFE5D4E011
:10188000DEBFCDBF10E0A0E6B0E0E4E9FFE102C0BA
:1018900005900D92A636B107D9F710E0A6E6B0E0A4
:1018A00001C01D92AE39B107E1F778D172C3A8CF5C
:1018B000A82FB92F8FEF9FEF41E050EA615070F0F1
:1018C0002D9138E0722F782796958795269570FF91
:1018D00002C0842795273A95A9F7F0CF8095909577
:1018E0000895E6DF8D939D930895CF93CFB7CF935F
:1018F000849BFECF849B09C0849B07C0849B05C04A
:10190000849B03C0849B01C0A1C0DF93C091810070
:10191000DD27C857DF4F849B02C0DF91EBCF2F93A9
:101920000F931F9300B32FEF04FB20F94F933F93C6
:1019300010B34FEF012704FB21F93BE031C04E7F8C
:10194000012F10B3216028C0102F4D7F22600000AE
:1019500000B329C04B7F2460012F000010B32BC0BF
:1019600010B3477F28602AC04F7E00B320612CC08F
:101970004F7D10B320622FC04F7B00B3206432C074
:10198000422700B349934FEF0000102714FB20F9C2
:1019900010B31471C9F1297F91F2012704FB21F9D9
:1019A00000B3237F89F2315058F1102714FB22F93C
:1019B00010B3277E79F2012704FB23F92F7C81F2F3
:1019C00000B3102714FB24F92F7971F200C010B373
:1019D000012704FB25F92F7359F200C000B310272B
:1019E00014FB26F9223040F200C010B3012704FB9B
:1019F00027F9243028F64F77206810B30000F9CF7C
:101A000010E41ABF002717C03B503195C31BD040CC
:101A100010E41ABF0881033CE9F00B34D9F020919F
:101A20007F001981110F1213EDCF093641F10D32EC
:101A300011F0013E39F7009386003F914F911F91BD
:101A40000F912F91DF91CAB7C6FD52CFCF91CFBF73
:101A5000CF91189500918600002379F310918400AE
:101A6000112349F534304AF130938400009380000B
:101A7000109181003BE0311B309381001EC000912A
:101A800084000130C4F40AE53091600034FD17C0D1
:101A900000936000C4E7D0E016C0052710E002BB49
:101AA0001FC0052722C0052727C005272CC00527F2
:101AB00010E002BB33C04AE503C042ED01C0432F32
:101AC000C4E1D0E032E011B31461949A02B311BBC7
:101AD0005F9354E120E820FF052702BB2795179567
:101AE0001C3FD8F620FF0527279502BB17951C3F02
:101AF000C0F620FF05272795179502BB1C3F98F6D7
:101B000020FF0527279517951C3F02BB70F600C0E4
:101B1000499120FF052702BB279517951C3F38F6F2
:101B200020FF0527279502BB17951C3F38F520FF9E
:101B300005272795179502BB1C3F10F520FF0527A9
:101B4000279517951C3F02BBE8F4242F3A9519F608
:101B50000B7E5F9102BB10918500110FC651D040E2
:101B600011F010937F0010E41ABF006111B31B7EC7
:101B7000402F4B7E02BB11BB42BB5FCF0527D3CFAB
:101B80000527D8CF0527DDCF12BAF89481E08BBFA7
:101B90001BBEE0917200F09173000995CFE5D4E08F
:101BA000DEBFCDBF979A04B601FED5C114BE81E059
:101BB0008BBF82E08BBF8799CEC1AA24BB2485B797
:101BC000836085BF8BB780648BBF8C9A2FEFA895FD
:101BD00088EB9BE00197F1F72150C9F78C98789436
:101BE0009091840019160CF031C180918100C4E9F4
:101BF000D0E0C81BD109935030E050E880918000BC
:101C00008D3209F0ADC08AE580936000983009F00C
:101C100017C1888180762981882309F04AC08DE721
:101C200090E030937D00222321F430937E0032E057
:101C30000FC0253021F48A818093850087C026302B
:101C400041F550EC8B81813041F488E398E132E139
:101C5000909383008093820079C0823019F486E2E9
:101C600098E1F5CF833009F071C08A81882321F48F
:101C700084E798E134E0ECCF813021F488E598E105
:101C80003CE1E6CF823009F061C08AE498E13EE0B1
:101C9000DFCF283019F487E890E009C0293021F41B
:101CA0008A818093870052C02A3009F04FC031E00A
:101CB000CFCF432F86E690E09093830080938200FD
:101CC0002330F1F4932FFB80EC81EE2E8A81803358
:101CD00031F4E370FF27EE59FF4F90810DC0803A39
:101CE00029F4D70142D1802D982F06C0803C21F4E1
:101CF0008D81D701082E41D19093690044E01EC028
:101D0000253011F441E01AC0822F8450863088F4C7
:101D10008A819B8190936D0080936C00293071F0D3
:101D20008E81809370008D818270809371004FEF5F
:101D300005C0223019F481E080936B00342F4F3FAF
:101D400029F4888187FD3E815F777AC08F8188235F
:101D500009F076C08E81831708F072C0382F70C0EA
:101D600080916A0087FD6CC0DE0180917000891748
:101D700008F4982F891B80937000732F882309F42F
:101D800071E0692F19160CF04DC093E0C92E81E067
:101D9000D82EC091710015E040916C0050916D00FB
:101DA00001E16250CA018F739070892B49F4F89455
:101DB000FA01C0925700E895789407B600FCFDCF71
:101DC000F8948D919D910C01FA01D0925700E895FD
:101DD000112478949A012E5F3F4FA901C9018F7396
:101DE0009070892B31F01616B4F07723A1F0CC2334
:101DF00091F0F89422503040F90110935700E89583
:101E00002E5F3F4F789407B600FCFDCFF894009307
:101E10005700E895789416160CF4C3CF30936D00F4
:101E200020936C00E72FFF273FEFE31731F4E09397
:101E300061008EE18093600002C0E11130E050E06B
:101E400050936A003093610010928400809160008A
:101E500084FF69C0809161008F3F09F464C0082F3E
:101E6000893008F008E0801B80936100CBE480910A
:101E70006A0080FDC3EC8F5F80936A00A5E7B0E045
:101E800087FF1DC0E0918200F0918300902F915058
:101E900086FF08C09F3F61F0C895802D8D933196D5
:101EA0009150F8CF9F3F21F081918D939150FACFBF
:101EB000F0938300E0938200602F772721C00023F6
:101EC000E9F090917000901708F4092F901B9093FF
:101ED00070001127A80160916C0070916D00CD0118
:101EE0003BD080916C0090916D00800F911F90937A
:101EF0006D0080936C00602F772702C060E070E077
:101F0000062F693040F485E790E0EBDC902F9C5F72
:101F1000083028F401C09EE18FEF80936100C093E8
:101F20007400909360009AE080B3847111F4915032
:101F3000D9F7992321F49093850090937F008091A5
:101F40006B00882331F00894A108B108A114B104F2
:101F500011F0879B45CE18DEFB01DC0102C0059025
:101F60000D9241505040D8F70895E199FECFBFBB84
:101F7000AEBBE09A11960DB20895E199FECFBFBBBA
:101F8000AEBB0DBA11960FB6F894E29AE19A0FBE65
:041F90000895FFCFE2
:061F94005AFF1E93070036
:0400000300001800E1
:00000001FF
