:103800000C945D1C0C94991C0C947A1C0C947A1CDE
:103810000C947A1C0C947A1C0C947A1C0C947A1CD0
:103820000C947A1C0C947A1C0C947A1C0C947A1CC0
:103830000C947A1C0C947A1C0C947A1C0C947A1CB0
:103840000C947A1C0C947A1C0C947A1C0C947A1CA0
:103850000C947A1C0C947A1C0C947A1C0C947A1C90
:103860000C947A1C0C947A1C09021200010100804D
:103870003209040000000000000012011001FF00E6
:103880000008C016DC050201010200010E0355000C
:10389000530042006100730070001C037700770042
:1038A00077002E00660069007300630068006C00FA
:1038B0002E00640065000403090411241FBECFEF2D
:1038C000D4E0DEBFCDBF11E0A0E0B1E0E8EEFFE361
:1038D00002C005900D92A630B107D9F711E0A6E01D
:1038E000B1E001C01D92AF33B107E1F70E94B61DF0
:1038F0000C94F31F0C94001CA82FB92F8FEF9FEF8F
:1039000041E050EA615070F02D9138E0722F782735
:1039100096958795269570FF02C0842795273A953E
:10392000A9F7F0CF809590950895E6DF8D939D934C
:103930000895CF93CFB7CF93DF934C9BFECF4C9B93
:103940000BC04C9B09C04C9B07C04C9B05C04C9BBB
:1039500003C04C9B01C089C06F93C0912201DD2739
:10396000C75DDE4F2F9365E54C9B03C02F916F9190
:10397000E6CF0F931F934F9320E040E15F9309B18F
:10398000047104FB27F93F9350E03BE039C0147108
:1039900040642F77012F53501EC0406819B1147135
:1039A0002F7753501FC0406409B12F770471D1F1B4
:1039B0005350000023C0406219B12F77147191F168
:1039C0005350000025C004711027515012F45D5F60
:1039D0000000115027952C3F19B1C8F6147101272A
:1039E000015027952C3FC8F64227499309B104712D
:1039F00010274F73115027952C3FA8F646954695F2
:103A000019B1147179F00127015027952C3F98F6D0
:103A10006B5A60F3315009B1B0F600C011E01CBB25
:103A2000002717C03B503195C31BD04011E01CBB91
:103A30000881033CF9F00B34E9F020912001198151
:103A4000110F1213EDCF093651F10D3211F0013E75
:103A500039F7009327013F915F914F911F910F918B
:103A60002F916F91CCB3C0FD68CFDF91CF91CFBFC5
:103A7000CF91189500912701002369F3109125013A
:103A8000112339F534303AF13093250100932101A7
:103A9000109122013BE0311B309322011CC00091A8
:103AA00025010130B4F40AE53091000134FD14C061
:103AB00000930001C5E1D1E013C0052710E000C06C
:103AC00000000BB91AC0052710E0221F1DC010E02E
:103AD00021C04AE502C032ED432FC4E1D0E032E01C
:103AE0001AB114615C9A0BB11AB954E120E865E38C
:103AF00020FF05270BB9279517951C3FF0F6669513
:103B0000B8F7B1F720FF05270BB9279517951C3F8C
:103B1000D0F62795179517FF052700001C3F0BB916
:103B2000B0F629913A9519F70B7E10912601110FE5
:103B3000C651D0400BB911F01093200111E01CBB0D
:103B400000611AB11B7E402F4B7E54E05A95F1F76D
:103B50000BB91AB94BB97FCF1BB8F89481E085BF78
:103B600015BEE0911301F09114010995CFEFD4E057
:103B7000DEBFCDBF5F9A04B601FE16C214BE81E05F
:103B800085BF82E085BF4F990FC2AA24BB248091D4
:103B90006900836080936900E89A549A2FEFA89592
:103BA00080EA9FE00197F1F72150C9F75498789483
:103BB0009091250119160CF05CC18091220145E31A
:103BC00051E0481B5109935030E070E88091210189
:103BD0008D3209F0BCC08AE580930001983009F06D
:103BE00042C1EA01888180762981882309F04EC08C
:103BF0008EE191E030931E01222321F430931F01C6
:103C000032E011C0253029F4FA0182818093260127
:103C100093C0263051F570ECEA018B81813041F47C
:103C20008AE798E332E1909324018093230184C0D2
:103C3000823019F488E698E3F5CF833009F07CC030
:103C4000FA018281882321F486EB98E334E0EBCFFC
:103C5000813021F48AE998E33CE1E5CF823009F034
:103C60006BC08CE898E33EE0DECF283019F488E2A0
:103C700091E00AC0293029F4EA018A818093280161
:103C80005BC02A3009F058C031E0CDCF632F86E009
:103C900091E09093240180932301233019F5932F11
:103CA000FA01F380E481EE2EEA018A81803331F457
:103CB000E370FF27EE5FFE4F908110C0803A31F431
:103CC000D7010E94DF1F802D982F08C0803C31F45F
:103CD000FA018581D701082E0E94E71F9093090100
:103CE00064E021C0253011F461E01DC0822F8450B2
:103CF0008630A0F4EA018A819B8190930D01809324
:103D00000C01293081F08E81809310018D818270A9
:103D100080931101209312016FEF05C0223019F436
:103D200081E080930B01362F6F3F31F4FA018081DF
:103D300087FD36817F7797C0EA018F81882309F05C
:103D400092C08E81831708F08EC0382F8CC080916E
:103D50000A0187FD88C0BA0180911001891708F413
:103D6000982F891B80931001932E882311F421E052
:103D7000922E809112018730A8F0A0910C01B09191
:103D80000D01892F9927EC01FB01219724F0019067
:103D90000E94E71FFACF20910C0130910D01280FEE
:103DA000391F4FC0A92F19160CF04FC093E0C92E30
:103DB00081E0D82EB091110105E040910C015091A5
:103DC0000D0111E1A250CA018F779070892B49F43F
:103DD000F894FA01C0925700E895789407B600FC71
:103DE000FDCFF894FB0181919191BF010C01FA0183
:103DF000D0925700E895112478949A012E5F3F4F96
:103E0000A901C9018F779070892B31F01A16B4F08F
:103E10009920A1F0BB2391F0F89422503040F90191
:103E200000935700E8952E5F3F4F789407B600FC4B
:103E3000FDCFF89410935700E89578941A160CF477
:103E4000C1CF30930D0120930C01E92DFF273FEFE7
:103E5000E31731F4E09301018EE18093000102C089
:103E6000E11130E070E070930A013093010110928B
:103E700025018091000184FF7FC0809101018F3F67
:103E800009F47AC0682F893008F068E0861B8093B7
:103E900001010BE480910A0180FD03EC8F5F8093A8
:103EA0000A01C6E1D1E087FF1CC0E0912301F09137
:103EB0002401262F215086FF08C02F3F61F0C895AE
:103EC000802D899331962150F8CF2F3F21F0819199
:103ED00089932150FACFF0932401E09323017727AF
:103EE00037C0662399F1162F80911001861708F4C8
:103EF000182F811B8093100180911201212F3327ED
:103F0000873068F0A0910C01B0910D01C901FE014C
:103F1000019724F00E94DF1F0192FACF08C0A90187
:103F200060910C0170910D01CE010E94D61F812F6E
:103F3000992720910C0130910D01280F391F3093E2
:103F40000D0120930C01682F772702C060E070E01C
:103F5000C62F693048F486E191E00E94951C9C2FA1
:103F60009C5FC83028F401C09EE18FEF809301016F
:103F700000931501909300019AE089B1847111F4C6
:103F80009150D9F7992321F4909326019093200121
:103F900080910B01882331F00894A108B108A11485
:103FA000B10411F04F9B04CE0E94AC1DFB01DC015B
:103FB00002C005900D9241505040D8F70895F999EC
:103FC000FECFB2BDA1BDF89A119600B40895F9993B
:103FD000FECFB2BDA1BD00BC11960FB6F894FA9AFF
:083FE000F99A0FBE0895FFCF0E
:063FE8005AFF1E940600C2
:0400000300003800C1
:00000001FF
